{
  "contractName": "MatchFactory",
  "abi": [
    {
      "inputs": [],
      "payable": false,
      "stateMutability": "nonpayable",
      "type": "constructor"
    },
    {
      "constant": false,
      "inputs": [
        {
          "name": "matchResults",
          "type": "uint8"
        },
        {
          "name": "minimum",
          "type": "uint256"
        },
        {
          "name": "desc",
          "type": "string"
        }
      ],
      "name": "createMatch",
      "outputs": [
        {
          "name": "",
          "type": "uint256"
        }
      ],
      "payable": false,
      "stateMutability": "nonpayable",
      "type": "function"
    },
    {
      "constant": true,
      "inputs": [
        {
          "name": "page",
          "type": "uint32"
        },
        {
          "name": "pageSize",
          "type": "uint8"
        }
      ],
      "name": "getMatches",
      "outputs": [
        {
          "name": "",
          "type": "address[]"
        }
      ],
      "payable": false,
      "stateMutability": "view",
      "type": "function"
    }
  ],
  "bytecode": "0x608060405234801561001057600080fd5b5060008054600160a060020a03191633179055610b3c806100326000396000f30060806040526004361061004b5763ffffffff7c0100000000000000000000000000000000000000000000000000000000600035041663055679398114610050578063212efd88146100c5575b600080fd5b34801561005c57600080fd5b50604080516020600460443581810135601f81018490048402850184019095528484526100b394823560ff169460248035953695946064949201919081908401838280828437509497506101399650505050505050565b60408051918252519081900360200190f35b3480156100d157600080fd5b506100e963ffffffff6004351660ff6024351661025a565b60408051602080825283518183015283519192839290830191858101910280838360005b8381101561012557818101518382015260200161010d565b505050509050019250505060405180910390f35b60008084848461014761032a565b808460ff1660ff16815260200183815260200180602001828103825283818151815260200191508051906020019080838360005b8381101561019357818101518382015260200161017b565b50505050905090810190601f1680156101c05780820380516001836020036101000a031916815260200191505b50945050505050604051809103906000f0801580156101e3573d6000803e3d6000fd5b5060018054808201825560008290527fb10e2d527612073b26eecdfd717e6a320cf44b4afac2b0732d9fcbe2b7fa0cf601805473ffffffffffffffffffffffffffffffffffffffff841673ffffffffffffffffffffffffffffffffffffffff19909116179055546000190192509050509392505050565b60608060008463ffffffff1660405190808252806020026020018201604052801561028f578160200160208202803883390190505b5091505063ffffffff60ff841685810203165b848460ff160263ffffffff168110156103225760018054829081106102c357fe5b600091825260209091200154825173ffffffffffffffffffffffffffffffffffffffff909116908390839081106102f657fe5b73ffffffffffffffffffffffffffffffffffffffff9092166020928302909101909101526001016102a2565b509392505050565b6040516107d68061033b833901905600608060405234801561001057600080fd5b506040516107d63803806107d68339810160409081528151602080840151928401516000805460ff191660ff8516179055600184905590930180519193909161005f916002919084019061009b565b5060038054600160a060020a0319163317905560ff8316610081600482610119565b50506003805460a060020a60ff0219169055506101f29050565b828054600181600116156101000203166002900490600052602060002090601f016020900481019282601f106100dc57805160ff1916838001178555610109565b82800160010185558215610109579182015b828111156101095782518255916020019190600101906100ee565b5061011592915061014a565b5090565b815481835581811115610145576003028160030283600052602060002091820191016101459190610167565b505050565b61016491905b808211156101155760008155600101610150565b90565b61016491905b808211156101155760008082556101876001830182610197565b506000600282015560030161016d565b50805460008255600302906000526020600020908101906101b891906101bb565b50565b61016491905b80821115610115578054600160a060020a03191681556000600182015560028101805460ff191690556003016101c1565b6105d5806102016000396000f30060806040526004361061006c5763ffffffff7c010000000000000000000000000000000000000000000000000000000060003504166303b9827f811461007157806341d1de97146100815780634aa81f21146100b25780636658e52b146100cd578063cee332dd146100e2575b600080fd5b61007f60ff600435166100f7565b005b34801561008d57600080fd5b50610099600435610249565b6040805192835260208301919091528051918290030190f35b3480156100be57600080fd5b5061007f60ff60043516610275565b3480156100d957600080fd5b5061007f610321565b3480156100ee57600080fd5b5061007f610483565b6100ff610589565b600054829060ff6001830181169116101561011957600080fd5b60015434101561012857600080fd5b600060035474010000000000000000000000000000000000000000900460ff16600281111561015357fe5b1461015d57600080fd5b60408051606081018252338152346020820152600091810191909152600480549193509060ff851690811061018e57fe5b6000918252602080832060039283020160019081018054808301825590855293829020865194909302909201805473ffffffffffffffffffffffffffffffffffffffff191673ffffffffffffffffffffffffffffffffffffffff9094169390931783558401519082015560408301516002909101805460ff19169115159190911790556004805434919060ff861690811061022557fe5b6000918252602090912060039091020180549091019055610244610513565b505050565b600480548290811061025757fe5b60009182526020909120600390910201805460029091015490915082565b60035473ffffffffffffffffffffffffffffffffffffffff16331461029957600080fd5b600160035474010000000000000000000000000000000000000000900460ff1660028111156102c457fe5b146102ce57600080fd5b6000805461ff00191661010060ff841602179055600380546002919074ff000000000000000000000000000000000000000019167401000000000000000000000000000000000000000083021790555050565b60008080600260035474010000000000000000000000000000000000000000900460ff16600281111561035057fe5b1461035a57600080fd5b600054600480549091610100900460ff1690811061037457fe5b9060005260206000209060030201925060009150600090505b600183015481101561044357600183018054339190839081106103ac57fe5b600091825260209091206003909102015473ffffffffffffffffffffffffffffffffffffffff16141561043b576002830154600184018054839081106103ee57fe5b90600052602060002090600302016001015402820191506001836001018281548110151561041857fe5b60009182526020909120600390910201600201805460ff19169115159190911790555b60010161038d565b6000821161045057600080fd5b604051339083156108fc029084906000818181858888f1935050505015801561047d573d6000803e3d6000fd5b50505050565b60035473ffffffffffffffffffffffffffffffffffffffff1633146104a757600080fd5b600060035474010000000000000000000000000000000000000000900460ff1660028111156104d257fe5b146104dc57600080fd5b6003805474ff0000000000000000000000000000000000000000191674010000000000000000000000000000000000000000179055565b60005b60005460ff9081169082161015610586576004805460ff831690811061053857fe5b6000918252602090912060039091020154303160610281151561055757fe5b0460048260ff1681548110151561056a57fe5b6000918252602090912060026003909202010155600101610516565b50565b6040805160608101825260008082526020820181905291810191909152905600a165627a7a723058204f4d9af5d40649b0bee4895d73aaef11ba4cfc25f694ac9a721a91a39bfc28ff0029a165627a7a7230582080511914b28b43962a61f86def29c154eea86180aafcb0796d52532b76711fdf0029",
  "source": "pragma solidity ^0.4.24;\nimport \"./match.sol\";\n\ncontract MatchFactory {\n    address owner;\n    address[] matches;\n\n    constructor () public {\n        owner = msg.sender;\n    }\n\n    function createMatch(uint8 matchResults, uint minimum, string desc) public returns (uint) {\n        address matching = new Match(matchResults, minimum, desc);\n        matches.push(matching);\n        return matches.length - 1;\n    }\n\n    function getMatches(uint32 page, uint8 pageSize) view public returns (address[]){\n        address[] memory paginatedRes = new address[](page);\n        for (uint i = pageSize * page - pageSize; i < pageSize * page; i++) {\n            paginatedRes[i] = matches[i];\n        }\n        return paginatedRes;\n    }\n}\n",
  "sourcePath": "/Users/qzy/Developer/Lottery/contracts/matchFactory.sol",
  "compiler": {
    "name": "solc",
    "version": "0.4.24+commit.e67f0147.Emscripten.clang"
  },
  "schemaVersion": "2.0.1",
  "updatedAt": "2018-06-24T06:48:07.735Z"
}