{
  "contractName": "Match",
  "abi": [
    {
      "constant": true,
      "inputs": [
        {
          "name": "",
          "type": "uint256"
        }
      ],
      "name": "allPools",
      "outputs": [
        {
          "name": "total",
          "type": "uint256"
        },
        {
          "name": "odds",
          "type": "uint256"
        }
      ],
      "payable": false,
      "stateMutability": "view",
      "type": "function"
    },
    {
      "inputs": [
        {
          "name": "matchResults",
          "type": "uint8"
        },
        {
          "name": "min",
          "type": "uint256"
        },
        {
          "name": "description",
          "type": "string"
        }
      ],
      "payable": false,
      "stateMutability": "nonpayable",
      "type": "constructor"
    },
    {
      "constant": false,
      "inputs": [
        {
          "name": "result",
          "type": "uint8"
        }
      ],
      "name": "takeGamble",
      "outputs": [],
      "payable": true,
      "stateMutability": "payable",
      "type": "function"
    },
    {
      "constant": false,
      "inputs": [],
      "name": "activeMatch",
      "outputs": [],
      "payable": false,
      "stateMutability": "nonpayable",
      "type": "function"
    },
    {
      "constant": false,
      "inputs": [
        {
          "name": "result",
          "type": "uint8"
        }
      ],
      "name": "finalize",
      "outputs": [],
      "payable": false,
      "stateMutability": "nonpayable",
      "type": "function"
    },
    {
      "constant": false,
      "inputs": [],
      "name": "claimMoney",
      "outputs": [],
      "payable": false,
      "stateMutability": "nonpayable",
      "type": "function"
    }
  ],
  "bytecode": "0x608060405234801561001057600080fd5b506040516107d63803806107d68339810160409081528151602080840151928401516000805460ff191660ff8516179055600184905590930180519193909161005f916002919084019061009b565b5060038054600160a060020a0319163317905560ff8316610081600482610119565b50506003805460a060020a60ff0219169055506101f29050565b828054600181600116156101000203166002900490600052602060002090601f016020900481019282601f106100dc57805160ff1916838001178555610109565b82800160010185558215610109579182015b828111156101095782518255916020019190600101906100ee565b5061011592915061014a565b5090565b815481835581811115610145576003028160030283600052602060002091820191016101459190610167565b505050565b61016491905b808211156101155760008155600101610150565b90565b61016491905b808211156101155760008082556101876001830182610197565b506000600282015560030161016d565b50805460008255600302906000526020600020908101906101b891906101bb565b50565b61016491905b80821115610115578054600160a060020a03191681556000600182015560028101805460ff191690556003016101c1565b6105d5806102016000396000f30060806040526004361061006c5763ffffffff7c010000000000000000000000000000000000000000000000000000000060003504166303b9827f811461007157806341d1de97146100815780634aa81f21146100b25780636658e52b146100cd578063cee332dd146100e2575b600080fd5b61007f60ff600435166100f7565b005b34801561008d57600080fd5b50610099600435610249565b6040805192835260208301919091528051918290030190f35b3480156100be57600080fd5b5061007f60ff60043516610275565b3480156100d957600080fd5b5061007f610321565b3480156100ee57600080fd5b5061007f610483565b6100ff610589565b600054829060ff6001830181169116101561011957600080fd5b60015434101561012857600080fd5b600060035474010000000000000000000000000000000000000000900460ff16600281111561015357fe5b1461015d57600080fd5b60408051606081018252338152346020820152600091810191909152600480549193509060ff851690811061018e57fe5b6000918252602080832060039283020160019081018054808301825590855293829020865194909302909201805473ffffffffffffffffffffffffffffffffffffffff191673ffffffffffffffffffffffffffffffffffffffff9094169390931783558401519082015560408301516002909101805460ff19169115159190911790556004805434919060ff861690811061022557fe5b6000918252602090912060039091020180549091019055610244610513565b505050565b600480548290811061025757fe5b60009182526020909120600390910201805460029091015490915082565b60035473ffffffffffffffffffffffffffffffffffffffff16331461029957600080fd5b600160035474010000000000000000000000000000000000000000900460ff1660028111156102c457fe5b146102ce57600080fd5b6000805461ff00191661010060ff841602179055600380546002919074ff000000000000000000000000000000000000000019167401000000000000000000000000000000000000000083021790555050565b60008080600260035474010000000000000000000000000000000000000000900460ff16600281111561035057fe5b1461035a57600080fd5b600054600480549091610100900460ff1690811061037457fe5b9060005260206000209060030201925060009150600090505b600183015481101561044357600183018054339190839081106103ac57fe5b600091825260209091206003909102015473ffffffffffffffffffffffffffffffffffffffff16141561043b576002830154600184018054839081106103ee57fe5b90600052602060002090600302016001015402820191506001836001018281548110151561041857fe5b60009182526020909120600390910201600201805460ff19169115159190911790555b60010161038d565b6000821161045057600080fd5b604051339083156108fc029084906000818181858888f1935050505015801561047d573d6000803e3d6000fd5b50505050565b60035473ffffffffffffffffffffffffffffffffffffffff1633146104a757600080fd5b600060035474010000000000000000000000000000000000000000900460ff1660028111156104d257fe5b146104dc57600080fd5b6003805474ff0000000000000000000000000000000000000000191674010000000000000000000000000000000000000000179055565b60005b60005460ff9081169082161015610586576004805460ff831690811061053857fe5b6000918252602090912060039091020154303160610281151561055757fe5b0460048260ff1681548110151561056a57fe5b6000918252602090912060026003909202010155600101610516565b50565b6040805160608101825260008082526020820181905291810191909152905600a165627a7a723058204f4d9af5d40649b0bee4895d73aaef11ba4cfc25f694ac9a721a91a39bfc28ff0029",
  "source": "pragma solidity ^0.4.24;\n\ncontract Match {\n    uint8 results;\n    uint8 winning;\n    uint minimum;\n    string desc;\n    address manager;\n    uint16 constant commissionPercent = 3;\n    State state;\n\n    enum State {uninitiated, began, finished}\n\n    PoolType[] public allPools;\n\n    struct Bet {\n        address player;\n        uint amount;\n        bool isPayed;\n    }\n\n    struct PoolType {\n        uint total;\n        Bet[] bets;\n        uint odds;\n    }\n\n    constructor (uint8 matchResults, uint min, string description) public {\n        results = matchResults;\n        minimum = min;\n        desc = description;\n        manager = msg.sender;\n        allPools.length = matchResults;\n        state = State.uninitiated;\n    }\n\n    function takeGamble(uint8 result) public inResultAndMoreThanMin(result) payable {\n        require(state == State.uninitiated);\n        Bet memory bet = Bet({player : msg.sender, amount : msg.value, isPayed : false});\n        allPools[result].bets.push(bet);\n        allPools[result].total += msg.value;\n        calcOdds();\n    }\n\n    function calcOdds() private {\n        for (uint8 i = 0; i < results; i++) {\n            allPools[i].odds =  (address(this).balance * (100 - commissionPercent)) / allPools[i].total ;\n        }\n    }\n\n    function activeMatch() public managerOnly{\n        require(state == State.uninitiated);\n        state = State.began;\n    }\n\n    function finalize(uint8 result) managerOnly public {\n        require(state == State.began);\n        winning = result;\n        state = State.finished;\n    }\n\n    function claimMoney() public {\n        require(state == State.finished);\n        PoolType storage winningPool = allPools[winning];\n        uint prize = 0;\n        for (uint i = 0; i < winningPool.bets.length; i++) {\n            if (winningPool.bets[i].player == msg.sender) {\n                prize += winningPool.bets[i].amount * winningPool.odds;\n                winningPool.bets[i].isPayed = true;\n            }\n        }\n        require(prize > 0);\n        msg.sender.transfer(prize);\n    }\n\n    modifier inResultAndMoreThanMin(uint8 result) {\n        require(results >= result + 1);\n        require(msg.value >= minimum);\n        _;\n    }\n\n    modifier managerOnly() {\n        require(manager == msg.sender);\n        _;\n    }\n}\n",
  "sourcePath": "/Users/qzy/Developer/Lottery/contracts/match.sol",
  "compiler": {
    "name": "solc",
    "version": "0.4.24+commit.e67f0147.Emscripten.clang"
  },
  "schemaVersion": "2.0.1",
  "updatedAt": "2018-06-24T06:48:07.734Z"
}